:020000040800F2
:100000000010002099210008E1210008E1210008EA
:10001000E1210008E1210008E121000800000000C2
:10002000000000000000000000000000E1210008C6
:10003000E121000800000000E1210008E1210008A2
:1000400000000000000000000000000000000000B0
:1000500000000000000000000000000000000000A0
:100060000000000000000000000000000000000090
:100070000000000000000000000000000000000080
:100080000000000000000000000000000000000070
:100090000000000000000000000000000000000060
:1000A0000000000000000000000000000000000050
:1000B0000000000000000000000000000000000040
:1000C0000000000000000000000000000000000030
:1000D0000000000000000000000000000000000020
:1000E0000000000000000000000000000000000010
:1000F0000000000000000000000000000000000000
:1001000000000000000000000000000000000000EF
:1001100000000000000000000000000000000000DF
:1001200000000000000000000000000000000000CF
:1001300000000000000000000000000000000000BF
:1001400000000000000000000000000000000000AF
:10015000000000000000000000000000000000009F
:10016000000000000000000000000000000000008F
:10017000000000000000000000000000000000007F
:08018000000000000000000077
:10018800054B0648033310B51B1A062B03D9044B3D
:10019800002B00D0984710BD140000201400002048
:1001A800000000000648074910B5091A8910CB0F4E
:1001B8005918491003D0044B002B00D0984710BDA4
:1001C80014000020140000200000000010B5074CA7
:1001D8002378002B09D1FFF7D3FF054B002B02D062
:1001E800044800E000BF0123237010BD1400002064
:1001F80000000000E4210008094B10B5002B03D0D3
:100208000849094800E000BF08480368002B02D1EC
:10021800FFF7C8FF10BD064B002BF9D09847F7E74A
:100228000000000018000020E4210008140000204D
:1002380000000000002243088B4274D303098B425C
:100248005FD3030A8B4244D3030B8B4228D3030C9E
:100258008B420DD3FF22090212BA030C8B4202D340
:100268001212090265D0030B8B4219D300E0090A68
:10027800C30B8B4201D3CB03C01A5241830B8B4271
:1002880001D38B03C01A5241430B8B4201D34B035A
:10029800C01A5241030B8B4201D30B03C01A5241BF
:1002A800C30A8B4201D3CB02C01A5241830A8B4244
:1002B80001D38B02C01A5241430A8B4201D34B022D
:1002C800C01A5241030A8B4201D30B02C01A524191
:1002D800CDD2C3098B4201D3CB01C01A5241830945
:1002E8008B4201D38B01C01A524143098B4201D37F
:1002F8004B01C01A524103098B4201D30B01C01AAA
:100308005241C3088B4201D3CB00C01A5241830823
:100318008B4201D38B00C01A524143088B4201D350
:100328004B00C01A5241411A00D2014652411046B0
:100338007047FFE701B5002000F006F802BDC0468F
:100348000029F7D076E770477047C046F8B54A02EB
:10035800430244004E00C50F240E28009B09360EA8
:10036800C90F92098D4259D0A01B002800DC8DE0EE
:10037800002E1AD1002A00D079E05A0704D00F22A3
:100388001A40042A00D004335A0138D50134FF2C0E
:1003980000D189E028009B015B0AE4B25B02E40516
:1003A8005B0A2343C0071843F8BDFF2CE5D0802122
:1003B800C9040A431B2800DD89E016002021C64035
:1003C800081A8240511E8A4132439B1A5A0114D599
:1003D8009B019E09300000F099F905388640844257
:1003E80065DC041B330020200134E340041BA640D5
:1003F800721E964100243343BFE75A07BFD1DF0876
:100408002800FF2C2FD1002F00D187E08022D203B3
:1004180013003B435B025B0AFF24BFE7A11B0029D3
:1004280049DD002E29D0FF2CA7D08026F6043243C0
:100438001B2900DD8DE017002026CF40711A8A4065
:10044800511E8A413A439B185A01D6D50134FF2CD4
:1004580064D0012276491A405B080B4013438CE7AD
:10046800031ECAD100207B025B0AE4B296E701387A
:100478000028AAD0FF2C9DD17FE7002A00D17CE775
:1004880001390029DFD0FF2CD2D176E7002820D10E
:10049800601CC0B2012853DD80279E1AFF04374034
:1004A8002FD0D61A0D0095E72800002376E7614B78
:1004B800241A334061E700294DD1611CCEB2012EC8
:1004C8002FDDFF292AD09B185B080C0055E7012275
:1004D8007BE7002C1BD1002B5BD0C04300280CD03D
:1004E800FF2E7ED01B2800DD92E01D002024C54091
:1004F800201A8340581E83412B43D31A34000D0021
:1005080064E7002E00D065E700200024ABE7FF2E4B
:1005180067D08024E40440422343E3E7FF24002318
:100528003CE7002C61D1002B7ED0002A00D124E7C3
:100538009B185A0100D460E73E4A0C0013401CE7A0
:10054800002C1ED1002B2FD1002A66D013000D00DD
:1005580013E7012277E7002C1FD1002B5AD0C9439B
:1005680000290BD0FF2E50D01B295FDC1F00202450
:10057800CF40611A8B40591E8B413B439B18340076
:1005880062E7002B1CD1002A4AD013000D00FF247B
:10059800F3E6130034000D00EFE6FF2E35D080247B
:1005A800E40449422343DFE7002A00D1E5E6802737
:1005B800981AFF04074000D152E7D31A0D00DCE671
:1005C800FF24002A00D1D8E68020DB08C0030342BC
:1005D80004D0D208024201D113000D00DB00FF2431
:1005E800CBE61300FF240D00C7E6002B0DD0FF2437
:1005F800002A00D1C1E68021DB08C9030B42EDD0F7
:10060800D2080A42EAD11300E8E71300FF24B4E64F
:10061800012372E713003400AFE60027002022E729
:1006280080270020FF03F1E61300A6E60123A5E7D3
:10063800FFFFFF7DFFFFFFFB4302590A4300C20F84
:100648001B0E00207E2B0EDD9D2B0DDC8020000470
:100658000143952B0BDC9620C31AD9400B00584256
:10066800002A00D118007047034BD018FBE7963BCF
:1006780099400B00F3E7C046FFFFFF7F70B50028E5
:1006880030D0C317C5185D40C40F280000F03EF8ED
:100698009E231B1A962B0DDC9622D21A95406A02CD
:1006A800520AD8B25202C005520AE4070243224352
:1006B800100070BD992B19DC9922D21A9540124A64
:1006C8002A40690704D00F210D40042D00D00432C0
:1006D800510103D50C4B1A409F231B1A9201520A51
:1006E800D8B2DFE7002400200022DBE705222E0035
:1006F800121AB921D6402A00C91A8A40551EAA41A1
:1007080035001543DBE7C046FFFFFFFB1C21012333
:100718001B04984201D3000C10391B0A984201D3DC
:10072800000A08391B09984201D30009043902A2BA
:10073800105C40187047C046040302020101010121
:10074800000000000000000070B50D4E0D4D0024A3
:10075800AD1BAD1005D0A300F35801349847A5424E
:10076800F9D101F03BFD084E084D0024AD1BAD103A
:1007780005D0A300F35801349847A542F9D170BDBC
:10078800FC210008FC210008FC21000800220008C8
:1007980080B582B000AF786000231800BD4602B073
:1007A80080BDC04680B582B000AF00237B6002E008
:1007B8007B6801337B607B68034A9342F8D9C04663
:1007C800BD4602B080BDC046FE0F000080B588B0AF
:1007D80000AF7860324B3B6100F098FB0023FB616F
:1007E8000F23FB18FF221A700E23FB18AA221A7077
:1007F8000F23FA180E23FB1812781B785340DAB22D
:100808001B23FB18D2431A700023FB610F23FB182C
:1008180000221A700E23FB18AA221A700F23FA1846
:100828000E23FB1812781B785340DAB21B23FB18EF
:10083800D2431A7000237B6118E01B23FB181B7836
:10084800012213401800FFF719FF031C191CF8694F
:10085800FFF77CFD031CFB611B23FB181B22BA1846
:10086800127852081A707B6901337B617B69072B08
:10087800E3DDFFF797FF00F055FB3869FFF7DCFE73
:100888000300DAB27B681A707B681A0010217220A4
:1008980000F00AFA00231800BD4608B080BDC04623
:1008A8000037033F80B582B000AF7860002318009E
:1008B800BD4602B080BDC04680B500AF00F02EFA3C
:1008C80000F08AFA00F0F0FA00F0E6F80A4B1A0095
:1008D80010216B2000F0EEF8084B1A001021702050
:1008E80000F0E8F8064B1A000021782000F0E2F842
:1008F80000F024F9FCE7C04699070008D50700086E
:10090800AD08000880B586B000AFF860B9607A60BD
:1009180000237B61ABE07B695B001A00BB689A1817
:100928001323FB1812781A707B695B000133BA68CD
:10093800D2181223FB1812781A701223FB181B788E
:100948002F2B0ED91223FB181B78392B09D87B695A
:100958007A68D3181222BA181278303AD2B21A70BA
:1009680029E01223FB181B78402B0ED91223FB1801
:100978001B78462B09D87B697A68D3181222BA18D3
:100988001278373AD2B21A7015E01223FB181B7886
:10099800602B0ED91223FB181B78662B09D87B69AC
:1009A8007A68D3181222BA181278573AD2B21A7043
:1009B80001E0012361E01323FB181B782F2B17D9C3
:1009C8001323FB181B78392B12D87B697A68D31844
:1009D8007A6979688A18127851B21322BA1812788B
:1009E800303A120152B20A4352B2D2B21A703BE004
:1009F8001323FB181B78402B17D91323FB181B78DC
:100A0800462B12D87B697A68D3187A6979688A186C
:100A1800127851B21322BA181278373A120152B228
:100A28000A4352B2D2B21A701EE01323FB181B7885
:100A3800602B17D91323FB181B78662B12D87B69F8
:100A48007A68D3187A6979688A18127851B21322A9
:100A5800BA181278573A120152B20A4352B2D2B2B5
:100A68001A7001E0012308E07B6901337B617A6930
:100A7800FB689A4200DA4EE700231800BD4606B02C
:100A880080BDC04680B582B000AF786000231800F2
:100A9800BD4602B080BDC04680B500AF044B1A0009
:100AA8000021762000F006F8C046BD4680BDC0464D
:100AB8008D0A000880B584B000AFB9607A600F2352
:100AC800FB18021C1A701B4B1B68092B01DD012344
:100AD8002BE0BB683F2B01D9012326E0154B1A6890
:100AE800154913005B009B189B000F22BA18127857
:100AF8005A54104B1A68104913005B009B189B004E
:100B0800CB180433BA681A600A4B1A680A491300EA
:100B18005B009B189B00CB1808337A681A60054B5A
:100B28001B685A1C034B1A6000231800BD4604B00A
:100B380080BDC046A80000203000002090B5B5B0A8
:100B480000AFC723FC1800F0F9F903002370002355
:100B5800CC22BA18136014E05149CC23FB181A6848
:100B680013005B009B189B005B5CC722BA181278C5
:100B78009A420ED0CC23FB181B680133CC22BA183A
:100B88001360484B1B68CC22BA1812689A42E3DB00
:100B980000E0C046434B1B68CC22BA1812689A4240
:100BA80000D173E00023C822BA18136020E0C723DD
:100BB800FC1800F0C3F903002370C723FB181B7847
:100BC8000A2B65D0C723FB181B780D2B60D0442354
:100BD800FA18C823FB181B68D318C722BA1812784A
:100BE8001A70C823FB181B680133C822BA1813608F
:100BF8002B49CC23FB181A6813005B009B189B0039
:100C0800CB1804331B685A00C823FB181B689A4288
:100C1800CDD8C723FC1800F091F903002370C7232F
:100C2800FB181B780A2B04D0C723FB181B780D2B45
:100C380030D11B49CC23FB181A6813005B009B18A2
:100C48009B00CB1804331B6818003A1D4423FB187B
:100C58001900FFF757FE031E1ED11149CC23FB18BC
:100C68001A6813005B009B189B00CB1808331B689D
:100C78003A1D1000984703001A003B001A703B0009
:100C88001A0001217A2000F00FF806E0C04604E0BF
:100C9800C04602E0C04600E0C046BD4635B090BD43
:100CA80030000020A800002080B586B000AFB960F1
:100CB8007A600F23FB18021C1A700F23FB181B788D
:100CC800180000F051F900237B611AE07B697A680B
:100CD800D3181B781B09DBB21A000F4B9B5C18005A
:100CE80000F042F97B697A68D3181B781A000F2341
:100CF8001340094AD35C180000F036F97B690133C8
:100D08007B617A69BB689A42E0DB0A2000F02CF923
:100D1800C046BD4606B080BD0000002080B596B034
:100D280000AF4423FB1804221A604423FB18012255
:100D38005A604423FB1800229A604423FB180322BC
:100D4800DA604423FA189023DB051100180000F03C
:100D58000DFD4423FB1810221A604423FB180122BE
:100D68005A604423FB1800229A604423FB1803228C
:100D7800DA604423FA189023DB051100180000F00C
:100D8800F5FC1423FB1803221A601423FB18052210
:100D98005A601423FB180022DA601423FB1800227F
:100DA8005A621423FB18180000F016F93B1D07229D
:100DB8001A603B1D01225A603B1D00229A603B1DB0
:100DC8000022DA603B1D0021180000F0F7FBC04646
:100DD800BD4616B080BDC04680B588B000AF2F4B69
:100DE8002E4A5269802189020A435A612B4B5A695B
:100DF80080239B021340BB60BB680C23FB18C022F6
:100E0800D2001A600C23FB1802225A600C23FB182C
:100E180001229A600C23FB180322DA600C23FB18CA
:100E280001221A610C23FA189023DB05110018001F
:100E380000F09CFC194B194A92698021C9010A43A8
:100E48009A61164B9A698023DB0113407B607B68AB
:100E5800124B124A126B03218A4301210A431A6377
:100E68000F4B104A1A600E4B962212025A600C4B16
:100E780000229A600A4B0022DA60094B00221A61AC
:100E8800074B00229A61064B0C225A61044B18004A
:100E980000F0C0FFC046BD4608B080BD001002404B
:100EA800B00000200038014080B586B000AF164B76
:100EB800154A5269802189020A435A61124B5A69BC
:100EC80080239B0213403B603B683B1D80221A60D5
:100ED8003B1D01225A603B1D00229A603B1D0322E4
:100EE800DA603A1D9023DB051100180000F03EFC83
:100EF8009023DB0500228021180000F0ABFDC046DE
:100F0800BD4606B080BDC0460010024080B500AFA7
:100F18009023DB0501228021180000F09BFDC046CC
:100F2800BD4680BD80B500AF9023DB05002280213F
:100F3800180000F08FFDC046BD4680BD80B582B068
:100F480000AFC046064BF91D0648012200F0AEFF6F
:100F5800031EF7D1FB1D1B781800BD4602B080BDEB
:100F680088130000B000002080B584B000AF0200F4
:100F7800FB1D1A700F23FB18FA1D12781A70054B07
:100F88000F22B9180448012201F05EF8C046BD4698
:100F980004B080BD88130000B000002080B500AF09
:100FA800044B1A68511C034B196013001800BD4606
:100FB80080BDC046AC00002080B500AFE123DB0354
:100FC8001800BD4680BDC04680B500AFE123DB03F5
:100FD8001800BD4680BDC04680B586B000AF7860B9
:100FE80000233B617B681B680122134000D18AE023
:100FF800C24B5B680C221340042B0BD0BF4B5B68C1
:101008000C221340082B13D1BC4B5A6880235B0277
:1010180013400DD0B94B1A6880239B02134000D1AE
:1010280070E07B685B68002B00D06BE00123B6E2C0
:101038007B685B68012B07D1B04BB04A12688021EE
:1010480049020A431A602FE07B685B68002B0CD1C9
:10105800AA4BAA4A1268AA490A401A60A74BA74A8B
:101068001268A8490A401A601EE07B685B68052B75
:101078000ED1A24BA14A12688021C9020A431A6004
:101088009E4B9E4A1268802149020A431A600BE06F
:101098009A4B9A4A12689A490A401A60974B974A9B
:1010A800126898490A401A607B685B68002B14D064
:1010B800FFF774FF03003B6108E0FFF76FFF0200D2
:1010C8003B69D31A642B01D9032368E28B4B1A6856
:1010D80080239B021340F0D015E0FFF75FFF030069
:1010E8003B6108E0FFF75AFF02003B69D31A642B03
:1010F80001D9032353E2814B1A6880239B021340D2
:10110800F0D100E0C0467B681B680222134000D182
:1011180069E07A4B5B680C2213400BD0774B5B6815
:101128000C221340082B1CD1744B5A6880235B0295
:10113800134016D1714B1B680222134005D07B68FF
:10114800DB68012B01D0012329E26C4A6B4B1B6839
:10115800F8218B4319007B681B69DB000B43136084
:1011680041E07B68DB68002B24D0644B634A12683B
:1011780001210A431A60FFF711FF03003B6108E0F1
:10118800FFF70CFF02003B69D31A022B01D9032396
:1011980005E25A4B1B6802221340F1D0574A574BBD
:1011A8001B68F8218B4319007B681B69DB000B4324
:1011B800136018E0514B514A126801218A431A60A2
:1011C800FFF7ECFE03003B6108E0FFF7E7FE0200D3
:1011D8003B69D31A022B01D90323E0E1474B1B6873
:1011E80002221340F1D17B681B680822134036D0D5
:1011F8007B68DB69002B19D0404B404A526A0121B9
:101208000A435A62FFF7CAFE03003B6108E0FFF792
:10121800C5FE02003B69D31A022B01D90323BEE1A4
:10122800364B5B6A02221340F1D018E0334B334A45
:10123800526A01218A435A62FFF7B0FE03003B61FC
:1012480008E0FFF7ABFE02003B69D31A022B01D975
:101258000323A4E1294B5B6A02221340F1D17B6886
:101268001B680422134000D1B6E01723FB180022A4
:101278001A70224BDA6980235B05134011D11F4B8A
:101288001E4AD269802149050A43DA611B4BDA6993
:1012980080235B051340FB60FB681723FB180122C2
:1012A8001A70194B1A6880235B0013401AD1164B29
:1012B800154A1268802149000A431A60FFF76EFE3A
:1012C80003003B6108E0FFF769FE02003B69D31A9F
:1012D800642B01D9032362E10B4B1A6880235B005E
:1012E8001340F0D07B689B68012B0FD1034B034A56
:1012F800126A01210A431A6236E0C0460010024011
:10130800FFFFFEFFFFFFFBFF007000407B689B684C
:10131800002B0CD1A44BA44A126A01218A431A62F9
:10132800A14BA14A126A04218A431A621CE07B6815
:101338009B68052B0CD19C4B9B4A126A04210A43DB
:101348001A62994B984A126A01210A431A620BE001
:10135800954B954A126A01218A431A62924B924A26
:10136800126A04218A431A627B689B68002B14D096
:10137800FFF714FE03003B6109E0FFF70FFE0200D0
:101388003B69D31A894A934201D9032307E1864B63
:101398001B6A02221340F0D013E0FFF7FFFD0300A1
:1013A8003B6109E0FFF7FAFD02003B69D31A7F4A67
:1013B800934201D90323F2E07B4B1B6A02221340BC
:1013C800F0D11723FB181B78012B05D1764B764AF1
:1013D800D26977490A40DA617B681B68102213409A
:1013E80063D07B685B69012B2AD16F4B6E4A526BC5
:1013F80004210A435A636C4B6B4A526B01210A431E
:101408005A63FFF7CBFD03003B6108E0FFF7C6FD19
:1014180002003B69D31A022B01D90323BFE0624BB8
:101428005B6B02221340F1D05F4A5F4B5B6BF82184
:101438008B4319007B689B69DB000B43536334E0E3
:101448007B685B69053311D1574B574A526B0421AE
:101458008A435A63544A544B5B6BF8218B431900F7
:101468007B689B69DB000B4353631EE04E4B4E4A7F
:10147800526B04210A435A634B4B4B4A526B01216E
:101488008A435A63FFF78AFD03003B6108E0FFF7D0
:1014980085FD02003B69D31A022B01D903237EE0A4
:1014A800414B5B6B02221340F1D17B681B6A002B16
:1014B80000D173E03C4B5B680C221340082B00D131
:1014C8006AE07B681B6A022B4BD1374B364A12689D
:1014D80038490A401A60FFF761FD03003B6108E0E4
:1014E800FFF75CFD02003B69D31A022B01D90323E5
:1014F80055E02D4B1A6880239B041340F0D12A4AEB
:10150800294BDB6A0F218B4319007B68DB6A0B438D
:10151800D362254A244B5B68274919407B68986A3F
:101528007B685B6A03430B4353601F4B1E4A126878
:10153800802149040A431A60FFF730FD03003B612C
:1015480008E0FFF72BFD02003B69D31A022B01D9F3
:10155800032324E0144B1A6880239B041340F0D023
:101568001CE0114B104A126812490A401A60FFF732
:1015780015FD03003B6108E0FFF710FD02003B6921
:10158800D31A022B01D9032309E0074B1A688023D9
:101598009B041340F0D101E0012300E00023180070
:1015A800BD4606B080BDC04600100240881300004A
:1015B800FFFFFFEFFFFFFFFEFFFFC2FF80B584B014
:1015C80000AF786039600023FB60634B1B68012221
:1015D8001A403B689A4211D25F4B5F4A1268012158
:1015E8008A4311003A680A431A605B4B1B68012260
:1015F8001A403B689A4201D00123A8E07B681B6827
:101608000222134009D0554A544B5B68F0218B43A2
:1016180019007B689B680B4353607B681B68012239
:10162800134000D167E07B685B68012B07D14B4B07
:101638001A6880239B02134014D1012387E07B683A
:101648005B68022B07D1454B1A6880239B04134023
:1016580008D101237BE0414B1B680222134001D1D2
:10166800012374E03D4A3D4B5B6803218B4319001D
:101678007B685B680B435360FFF790FC0300FB60DB
:101688007B685B68012B11D109E0FFF787FC02003A
:10169800FB68D31A324A934201D9032357E02F4BF0
:1016A8005B680C221340042BEFD124E07B685B6855
:1016B800022B1BD109E0FFF771FC0200FB68D31A6B
:1016C800274A934201D9032341E0244B5B680C224B
:1016D8001340082BEFD10EE0FFF760FC0200FB6817
:1016E800D31A1F4A934201D9032330E01B4B5B688E
:1016F8000C221340F0D1184B1B6801221A403B689A
:101708009A4211D9144B144A126801218A431100D4
:101718003A680A431A60104B1B6801221A403B685A
:101728009A4201D0012312E07B681B68042213400F
:1017380008D00A4A094B5B680A4919407B68DB688C
:101748000B435360084BE122D2031A6000231800B0
:10175800BD4604B080BDC0460020024000100240D3
:1017680088130000FFF8FFFF1000002080B586B046
:1017780000AF7860396000237B610023FB600023A1
:101788003B614FE13B681B6801217A6991400A007F
:101798001340FB60FB68002B00D140E13B685B68AD
:1017A800022B03D03B685B68122B23D17B69DA08D4
:1017B8007B6808329200D3583B617B69072213404B
:1017C8009B000F229A401300DA433B6913403B61A8
:1017D8003B681A697B6907210B409B009A401300FC
:1017E8003A6913433B617B69DA087B6808329200E7
:1017F8003969D1507B681B683B617B695B000322B8
:101808009A401300DA433B6913403B613B685B68CD
:1018180003221A407B695B009A4013003A6913431C
:101828003B617B683A691A603B685B68012B0BD0A7
:101838003B685B68022B07D03B685B68112B03D0C1
:101848003B685B68122B30D17B689B683B617B6986
:101858005B0003229A401300DA433B6913403B6163
:101868003B68DA687B695B009A4013003A69134366
:101878003B617B683A699A607B685B683B610122DF
:101888007B699A401300DA433B6913403B613B682C
:101898005B681B0901221A407B699A4013003A6968
:1018A80013433B617B683A695A607B68DB683B613C
:1018B8007B695B0003229A401300DA433B691340BB
:1018C8003B613B689A687B695B009A4013003A6900
:1018D80013433B617B683A69DA603B685A68802346
:1018E8005B05134000D19AE0544B544A9269012198
:1018F8000A439A61514B9B6901221340BB60BB6844
:101908004F4A7B699B0802339B009B583B617B696C
:10191800032213409B000F229A401300DA433B69CD
:1019280013403B617A689023DB059A4213D07B68A9
:10193800444A93420DD07B68434A934207D07B6860
:10194800424A934201D1032306E0052304E002231F
:1019580002E0012300E000237A6903210A40920093
:1019680093403A6913433B6135497B699B080233CD
:101978009B003A695A50364B1B683B61FB68DA4357
:101988003B6913403B613B685A6880235B02134004
:1019980003D03A69FB6813433B612D4B3A691A60DF
:1019A8002B4B5B683B61FB68DA433B6913403B6147
:1019B8003B685A6880239B02134003D03A69FB684E
:1019C80013433B61224B3A695A60214B9B683B6148
:1019D800FB68DA433B6913403B613B685A688023E4
:1019E8005B03134003D03A69FB6813433B61184B10
:1019F8003A699A60164BDB683B61FB68DA433B69DE
:101A080013403B613B685A6880239B03134003D013
:101A18003A69FB6813433B610D4B3A69DA607B69AD
:101A280001337B613B681A687B69DA40131E00D07A
:101A3800A8E6C046BD4606B080BDC04600100240BC
:101A4800000001400004004800080048000C00485D
:101A58000004014080B582B000AF78600800110032
:101A6800BB1C021C1A807B1C0A1C1A707B1C1B786E
:101A7800002B04D0BB1C1A887B689A6103E0BB1C4E
:101A88001A887B689A62C046BD4602B080BDC046CF
:101A980080B584B000AFF860B9603B60FB1D1A7078
:101AA8002BE0BB69013328D0BB69002B07D0FFF7B7
:101AB80075FA02003B68D21ABB699A421DD9FB68C5
:101AC8001B68FA681268126816490A401A60FB68AF
:101AD8001B68FA681268926801218A439A60FB6859
:101AE800692220219954FB686A2220219954FB68B5
:101AF80068220021995403230FE0FB681B68DB6907
:101B0800BA681A40BB68D31A5A425341DBB21A006A
:101B1800FB1D1B789A42C4D000231800BD4604B0B0
:101B280080BDC0465FFEFFFF80B582B000AF786021
:101B38007B680022DA667B686922202199547B68D9
:101B48006A22202199547B68682200219954002335
:101B58001800BD4602B080BD90B587B000AF786070
:101B68000023FB601723FB1810221A700A23FB18A6
:101B780000221A801423FB1800221A801323FB1852
:101B880000221A707B689A687B681B691A437B6815
:101B98005B691A437B68DB691343FB607B681B68DE
:101BA8007A681268126895491140FA680A431A60FF
:101BB8007B681B687A6812685268914911407A6894
:101BC800D2680A435A607B689A697B681B6A134328
:101BD800FB607B681B687A681268926889491140C3
:101BE800FA680A439A60884B1B6B03221340012B47
:101BF8000FD004D3022B11D0032B05D013E01723E9
:101C0800FB1800221A7012E01723FB1802221A7020
:101C18000DE01723FB1804221A7008E01723FB189D
:101C280008221A7003E01723FB1810221A70C04606
:101C38007B68DA6980231B029A4200D07BE0172375
:101C4800FB181B78022B1CD002DC002B05D04FE0C0
:101C5800042B27D0082B39D04AE0FFF7B5F9030049
:101C68005A007B685B685B08D2187B685B68190060
:101C78001000FEF7DFFA03001A001423FB181A807D
:101C88003BE07B685B685B08604A9A187B685B6826
:101C980019001000FEF7CEFA03001A001423FB18EF
:101CA8001A802AE0FFF788F903005A007B685B680E
:101CB8005B08D2187B685B6819001000FEF7BAFA57
:101CC80003001A001423FB181A8016E07B685B686F
:101CD8005B08802252029A187B685B681900100022
:101CE800FEF7A8FA03001A001423FB181A8004E070
:101CF8001323FB1801221A70C0460A23FB1814226A
:101D0800BA1812880F218A431A801423FB181B88DB
:101D18005B109BB20722134099B20A23FB180A22D0
:101D2800BA1812880A431A807B681B680A22BA18F4
:101D38001288DA605BE01723FB181B78022B1BD094
:101D480002DC002B05D04DE0042B26D0082B37D021
:101D580048E07B681C68FFF737F902007B685B681E
:101D68005B08D2187B685B6819001000FEF762FAFE
:101D780003009BB2E3603AE07B681C687B685B68A1
:101D88005B08234A9A187B685B6819001000FEF705
:101D980051FA03009BB2E36029E07B681C68FFF7F7
:101DA8000BF902007B685B685B08D2187B685B688C
:101DB80019001000FEF73EFA03009BB2E36016E03C
:101DC8007B681C687B685B685B08802212029A1833
:101DD8007B685B6819001000FEF72CFA03009BB2C1
:101DE800E36004E01323FB1801221A70C046132392
:101DF800FB181B781800BD4607B090BDF369FFFFBC
:101E0800FFCFFFFFFFF4FFFF001002400048E8018A
:101E18000024F40080B582B000AF78607B68002BA6
:101E280001D101233BE07B6869229B5CDBB2002B7C
:101E380003D17B686822002199547B686922242198
:101E480099547B681B687A681268126801218A4372
:101E58001A607B681800FFF77FFE0300012B01D191
:101E680001231CE07B681B687A68126852680E4977
:101E78000A405A607B681B687A6812689268082171
:101E88008A439A607B681B687A6812681268012125
:101E98000A431A607B681800FFF746FE0300180023
:101EA800BD4602B080BDC046FFF7FFFF80B58AB0CF
:101EB80002AFF860B9603B60BB1D1A800023FB616C
:101EC800FB686A229B5CDBB2202B00D0B4E0BB68C5
:101ED800002B03D0BB1D1B88002B01D10123ACE0D4
:101EE800FB689A6880235B019A4209D1FB681B69E9
:101EF800002B05D1BB680122134001D001239CE0CF
:101F0800FB6868229B5C012B01D1022395E0FB68EA
:101F1800682201219954FB680022DA66FB686A226C
:101F280022219954FFF73AF80300FB61FB68BA1DB8
:101F3800582112885A52FB68BA1D5A2112885A52DF
:101F4800FB689A6880235B019A420DD1FB681B6984
:101F5800002B04D1FB685C223A49995215E0FB68D2
:101F68005C22FF21995210E0FB689B68002B0CD182
:101F7800FB681B69002B04D1FB685C22FF21995286
:101F880003E0FB685C227F2199521A23FB18FA6848
:101F98005C21525A1A803FE0FB685A229B5A9BB236
:101FA800013B99B2FB685A229952FA69F8683B6872
:101FB8000093130000222021FFF76AFD031E01D0C1
:101FC80003233AE0FB689A6880235B019A4214D1A4
:101FD800FB681B69002B10D1BB687B61FB681B6821
:101FE8009B8C9BB21A22BA18128813409AB27B694A
:101FF8001A80BB680233BB600EE0BB685A1CBA602B
:10200800FA681268928C92B2D2B21A2179180988A9
:10201800C9B20A40D2B21A70FB685A229B5A9BB2C4
:10202800002BB9D1FB686A2220219954FB686822E9
:1020380000219954002300E002231800BD4608B08F
:1020480080BDC046FF01000080B588B002AFF860CF
:10205800B9603B60BB1D1A8000237B61FB68692265
:102068009B5CDBB2202B00D08CE0BB68002B03D03C
:10207800BB1D1B88002B01D1012384E0FB689A68F3
:1020880080235B019A4209D1FB681B69002B05D1AB
:10209800BB680122134001D0012374E0FB68682269
:1020A8009B5C012B01D102236DE0FB6868220121B2
:1020B8009954FB680022DA66FB6869222121995449
:1020C800FEF76CFF03007B61FB68BA1D5021128884
:1020D8005A52FB68BA1D522112885A5235E0FB68E1
:1020E80052229B5A9BB2013B99B2FB6852229952E9
:1020F8007A69F8683B680093130000228021FFF793
:10210800C7FC031E01D003233DE0FB689A688023C7
:102118005B019A4211D1FB681B69002B0DD1BB688A
:102128003B61FB681B683A691288D205D20D92B2EE
:102138001A85BB680233BB6007E0FB681A68BB6896
:10214800591CB9601B789BB21385FB6852229B5AB5
:102158009BB2002BC3D17A69F8683B6800931300DF
:1021680000224021FFF794FC031E01D003230AE05C
:10217800FB68692220219954FB6868220021995440
:10218800002300E002231800BD4606B080BDC0460B
:10219800002103E00B4B5B58435004310A480B4BBA
:1021A80042189A42F6D30A4A02E000231360043226
:1021B800084B9A42F9D300E000BFFEF7C5FAFEF7D4
:1021C8007BFBFEE70422000800000020140000202A
:1021D8001400002020010020FEE70000F8B5C046EA
:1021E800F8BC08BC9E467047F8B5C046F8BC08BCA9
:0421F8009E46704748
:0421FC0001020008D4
:04220000D5010008FC
:102204003031323334353637383941424344454628
:0422140000127A003A
:040000050800219935
:00000001FF
